S01B00006A676166663030315F6C6162375F70617274312E737265636E
S113000045C0000060C000005EC000005CC000008D
S11300105AC0000058C0000056C0000054C0000080
S113002052C0000050C000004EC000004CC0000090
S11300304AC00000ACC0000046C0000044C000003C
S113004042C0000040C000003EC000003CC00000B0
S11300503AC0000038C0000036C0000034C00000C0
S113006032C0000030C000002EC000002CC00000D0
S11300702AC0000028C0000026C0000024C00000E0
S113008022C0000020C000001EC0000011241FBEBA
S1130090CFEFD0E4DEBFCDBF11E0A0E0B1E0ECE2F1
S11300A0F3E000E00BBF02C007900D92A430B1074B
S11300B0D9F721E0A4E0B1E001C01D92AB30B20752
S11300C0E1F711D131C19CCF181619065CF00895DF
S11300D0000021503109E1F74F5F5F4F8417950706
S11300E019F4089540E050E027E033E0F1CF5E9842
S11300F088B95F9A00005F9882E090E0E5CF0895A8
S113010081E0F5CF0895813118F48158F0CF089536
S11301108155EDCF089584E690E0D6DF88E3E7DFEC
S113012086E0E5DF8FE0E3DF81E0E1DF8AE090E075
S1130130CBCF08955E9A88B95F9A00005F9881E0FA
S113014090E0C2CF08958BE0809381008DE790E02A
S1130150909389008093880082E080936F001092CE
S11301608500109284008091000190910101A0917A
S11301700201B09103018093050190930601A093BD
S11301800701B09308018FB780688FBF08951F924D
S11301900F920FB60F9211248F939F93AF93BF9337
S11301A08091050190910601A0910701B091080189
S11301B00197A109B1098093050190930601A093C9
S11301C00701B0930801892B8A2B8B2B99F481E0CA
S11301D0809309018091000190910101A091020195
S11301E0B09103018093050190930601A093070148
S11301F0B0930801BF91AF919F918F910F900FBE63
S11302000F901F90189560930001709301018093E3
S1130210020190930301609305017093060180939A
S1130220070190930801089580910A018130F1F04B
S113023028F0823051F18330B9F13DC0009906C0F5
S1130240019904C083E080930A0145C0009B06C065
S1130250019904C082E080930A0138C0009942C029
S1130260019B40C081E080930A0138C0009906C018
S1130270019904C083E080930A012DC0009B02C051
S1130280019B2CC010920A010895009906C001999F
S113029004C083E080930A011EC0009B02C0019B3E
S11302A015C010920A010895009902C0019B13C061
S11302B010920A01089510920A0108958F5F8093A5
S11302C004010895815080930401089580910401EC
S11302D08111F8CF089510920401089580910401CA
S11302E0893060F3089511B88FEF82B987B918B8CF
S11302F087B918B868EE73E080E090E084DF23DF0C
S11303000ADFFEDE10920A011092040181E0FBDE96
S11303108BDF80910401805D0DDF809109018823CA
S10F0320E1F310920901F2CFF894FFCF32
S107032C01000000C8
S9030000FC
